{"abi":[{"type":"constructor","inputs":[],"stateMutability":"nonpayable"},{"type":"function","name":"UPGRADE_INTERFACE_VERSION","inputs":[],"outputs":[{"name":"","type":"string","internalType":"string"}],"stateMutability":"view"},{"type":"function","name":"getFlips","inputs":[],"outputs":[{"name":"","type":"uint8[10]","internalType":"uint8[10]"}],"stateMutability":"view"},{"type":"function","name":"initialize","inputs":[{"name":"initialOwner","type":"address","internalType":"address"}],"outputs":[],"stateMutability":"nonpayable"},{"type":"function","name":"owner","inputs":[],"outputs":[{"name":"","type":"address","internalType":"address"}],"stateMutability":"view"},{"type":"function","name":"proxiableUUID","inputs":[],"outputs":[{"name":"","type":"bytes32","internalType":"bytes32"}],"stateMutability":"view"},{"type":"function","name":"renounceOwnership","inputs":[],"outputs":[],"stateMutability":"nonpayable"},{"type":"function","name":"seed","inputs":[],"outputs":[{"name":"","type":"string","internalType":"string"}],"stateMutability":"view"},{"type":"function","name":"seedRotation","inputs":[{"name":"NewSeed","type":"string","internalType":"string"}],"outputs":[],"stateMutability":"nonpayable"},{"type":"function","name":"transferOwnership","inputs":[{"name":"newOwner","type":"address","internalType":"address"}],"outputs":[],"stateMutability":"nonpayable"},{"type":"function","name":"upgradeToAndCall","inputs":[{"name":"newImplementation","type":"address","internalType":"address"},{"name":"data","type":"bytes","internalType":"bytes"}],"outputs":[],"stateMutability":"payable"},{"type":"function","name":"userInput","inputs":[{"name":"Guesses","type":"uint8[10]","internalType":"uint8[10]"}],"outputs":[{"name":"CorrectGuess","type":"bool","internalType":"bool"}],"stateMutability":"view"},{"type":"event","name":"Initialized","inputs":[{"name":"version","type":"uint64","indexed":false,"internalType":"uint64"}],"anonymous":false},{"type":"event","name":"OwnershipTransferred","inputs":[{"name":"previousOwner","type":"address","indexed":true,"internalType":"address"},{"name":"newOwner","type":"address","indexed":true,"internalType":"address"}],"anonymous":false},{"type":"event","name":"Upgraded","inputs":[{"name":"implementation","type":"address","indexed":true,"internalType":"address"}],"anonymous":false},{"type":"error","name":"AddressEmptyCode","inputs":[{"name":"target","type":"address","internalType":"address"}]},{"type":"error","name":"ERC1967InvalidImplementation","inputs":[{"name":"implementation","type":"address","internalType":"address"}]},{"type":"error","name":"ERC1967NonPayable","inputs":[]},{"type":"error","name":"FailedInnerCall","inputs":[]},{"type":"error","name":"InvalidInitialization","inputs":[]},{"type":"error","name":"NotInitializing","inputs":[]},{"type":"error","name":"OwnableInvalidOwner","inputs":[{"name":"owner","type":"address","internalType":"address"}]},{"type":"error","name":"OwnableUnauthorizedAccount","inputs":[{"name":"account","type":"address","internalType":"address"}]},{"type":"error","name":"SeedTooShort","inputs":[]},{"type":"error","name":"UUPSUnauthorizedCallContext","inputs":[]},{"type":"error","name":"UUPSUnsupportedProxiableUUID","inputs":[{"name":"slot","type":"bytes32","internalType":"bytes32"}]}],"bytecode":{"object":"0x60a06040523060805234801561001457600080fd5b5061001d610022565b6100d4565b7ff0c57e16840df040f15088dc2f81fe391c3923bec73e23a9662efc9c229c6a00805468010000000000000000900460ff16156100725760405163f92ee8a960e01b815260040160405180910390fd5b80546001600160401b03908116146100d15780546001600160401b0319166001600160401b0390811782556040519081527fc7f505b2f371ae2175ee4913f4499e1f2633a7b5936321eed1cdaeb6115181d29060200160405180910390a15b50565b6080516112396100fd6000396000818161089e015281816108c70152610a0d01526112396000f3fe60806040526004361061009c5760003560e01c80637d94792a116100645780637d94792a146101355780638da5cb5b14610157578063ad3cb1cc1461019e578063c4d66de8146101cf578063ddabf9b2146101ef578063f2fde38b1461021f57600080fd5b806327236822146100a15780634f1ef286146100c357806352d1902d146100d65780635ff7a0bd146100fe578063715018a614610120575b600080fd5b3480156100ad57600080fd5b506100c16100bc366004610dab565b61023f565b005b6100c16100d1366004610e18565b6103cf565b3480156100e257600080fd5b506100eb6103ee565b6040519081526020015b60405180910390f35b34801561010a57600080fd5b5061011361040b565b6040516100f59190610e7a565b34801561012c57600080fd5b506100c1610590565b34801561014157600080fd5b5061014a6105a4565b6040516100f59190610ed3565b34801561016357600080fd5b507f9016d09d72d40fdae2fd8ceac6b6234c7706214fd39c1cd1e609a0528c199300546040516001600160a01b0390911681526020016100f5565b3480156101aa57600080fd5b5061014a604051806040016040528060058152602001640352e302e360dc1b81525081565b3480156101db57600080fd5b506100c16101ea366004610f06565b610632565b3480156101fb57600080fd5b5061020f61020a366004610f21565b610770565b60405190151581526020016100f5565b34801561022b57600080fd5b506100c161023a366004610f06565b6107f5565b610247610838565b8051819060056102578282610f62565b9050600a82101561027b5760405163cde2a69360e01b815260040160405180910390fd5b60008267ffffffffffffffff81111561029657610296610d1f565b6040519080825280601f01601f1916602001820160405280156102c0576020820181803683370190505b50905060005b838160ff1610156103ba57836102df8460ff8416610f8c565b101561034357848160ff16815181106102fa576102fa610f9f565b01602001516001600160f81b031916826103178560ff8516610f8c565b8151811061032757610327610f9f565b60200101906001600160f81b031916908160001a9053506103a8565b848160ff168151811061035857610358610f9f565b01602001516001600160f81b03191682856103768660ff8616610f8c565b6103809190610fb5565b8151811061039057610390610f9f565b60200101906001600160f81b031916908160001a9053505b806103b281610fc8565b9150506102c6565b5060006103c78282611069565b505050505050565b6103d7610893565b6103e082610938565b6103ea8282610940565b5050565b60006103f8610a02565b506000805160206111ad83398151915290565b610413610d00565b600080805461042190610fe7565b80601f016020809104026020016040519081016040528092919081815260200182805461044d90610fe7565b801561049a5780601f1061046f5761010080835404028352916020019161049a565b820191906000526020600020905b81548152906001019060200180831161047d57829003601f168201915b5050505050905060008080546104af90610fe7565b905090506104bb610d00565b60006104c8600a84611129565b905060005b600a8160ff161015610586576000856104e98460ff851661113d565b815181106104f9576104f9610f9f565b602001015160f81c60f81b4260405160200161052b9291906001600160f81b0319929092168252602082015260400190565b60408051601f1981840301815291905280516020909101209050610550600282610f62565b61055b906001610fb5565b848360ff16600a811061057057610570610f9f565b60ff9092166020929092020152506001016104cd565b5090949350505050565b610598610838565b6105a26000610a4b565b565b600080546105b190610fe7565b80601f01602080910402602001604051908101604052809291908181526020018280546105dd90610fe7565b801561062a5780601f106105ff5761010080835404028352916020019161062a565b820191906000526020600020905b81548152906001019060200180831161060d57829003601f168201915b505050505081565b7ff0c57e16840df040f15088dc2f81fe391c3923bec73e23a9662efc9c229c6a008054600160401b810460ff16159067ffffffffffffffff166000811580156106785750825b905060008267ffffffffffffffff1660011480156106955750303b155b9050811580156106a3575080155b156106c15760405163f92ee8a960e01b815260040160405180910390fd5b845467ffffffffffffffff1916600117855583156106eb57845460ff60401b1916600160401b1785555b6106f486610abc565b6106fc610acd565b6040518060600160405280603781526020016111cd603791396000906107229082611069565b5083156103c757845460ff60401b19168555604051600181527fc7f505b2f371ae2175ee4913f4499e1f2633a7b5936321eed1cdaeb6115181d29060200160405180910390a1505050505050565b60008061077b61040b565b905060005b600a8160ff1610156107eb57838160ff16600a81106107a1576107a1610f9f565b6020020160208101906107b49190611154565b60ff16828260ff16600a81106107cc576107cc610f9f565b602002015160ff16146107e3575060009392505050565b600101610780565b5060019392505050565b6107fd610838565b6001600160a01b03811661082c57604051631e4fbdf760e01b8152600060048201526024015b60405180910390fd5b61083581610a4b565b50565b3361086a7f9016d09d72d40fdae2fd8ceac6b6234c7706214fd39c1cd1e609a0528c199300546001600160a01b031690565b6001600160a01b0316146105a25760405163118cdaa760e01b8152336004820152602401610823565b306001600160a01b037f000000000000000000000000000000000000000000000000000000000000000016148061091a57507f00000000000000000000000000000000000000000000000000000000000000006001600160a01b031661090e6000805160206111ad833981519152546001600160a01b031690565b6001600160a01b031614155b156105a25760405163703e46dd60e11b815260040160405180910390fd5b610835610838565b816001600160a01b03166352d1902d6040518163ffffffff1660e01b8152600401602060405180830381865afa92505050801561099a575060408051601f3d908101601f1916820190925261099791810190611177565b60015b6109c257604051634c9c8ce360e01b81526001600160a01b0383166004820152602401610823565b6000805160206111ad83398151915281146109f357604051632a87526960e21b815260048101829052602401610823565b6109fd8383610ad5565b505050565b306001600160a01b037f000000000000000000000000000000000000000000000000000000000000000016146105a25760405163703e46dd60e11b815260040160405180910390fd5b7f9016d09d72d40fdae2fd8ceac6b6234c7706214fd39c1cd1e609a0528c19930080546001600160a01b031981166001600160a01b03848116918217845560405192169182907f8be0079c531659141344cd1fd0a4f28419497f9722a3daafe3b4186f6b6457e090600090a3505050565b610ac4610b2b565b61083581610b74565b6105a2610b2b565b610ade82610b7c565b6040516001600160a01b038316907fbc7cd75a20ee27fd9adebab32041f755214dbc6bffa90cc0225b39da2e5c2d3b90600090a2805115610b23576109fd8282610be1565b6103ea610c59565b7ff0c57e16840df040f15088dc2f81fe391c3923bec73e23a9662efc9c229c6a0054600160401b900460ff166105a257604051631afcd79f60e31b815260040160405180910390fd5b6107fd610b2b565b806001600160a01b03163b600003610bb257604051634c9c8ce360e01b81526001600160a01b0382166004820152602401610823565b6000805160206111ad83398151915280546001600160a01b0319166001600160a01b0392909216919091179055565b6060600080846001600160a01b031684604051610bfe9190611190565b600060405180830381855af49150503d8060008114610c39576040519150601f19603f3d011682016040523d82523d6000602084013e610c3e565b606091505b5091509150610c4e858383610c78565b925050505b92915050565b34156105a25760405163b398979f60e01b815260040160405180910390fd5b606082610c8d57610c8882610cd7565b610cd0565b8151158015610ca457506001600160a01b0384163b155b15610ccd57604051639996b31560e01b81526001600160a01b0385166004820152602401610823565b50805b9392505050565b805115610ce75780518082602001fd5b604051630a12f52160e11b815260040160405180910390fd5b604051806101400160405280600a906020820280368337509192915050565b634e487b7160e01b600052604160045260246000fd5b600067ffffffffffffffff80841115610d5057610d50610d1f565b604051601f8501601f19908116603f01168101908282118183101715610d7857610d78610d1f565b81604052809350858152868686011115610d9157600080fd5b858560208301376000602087830101525050509392505050565b600060208284031215610dbd57600080fd5b813567ffffffffffffffff811115610dd457600080fd5b8201601f81018413610de557600080fd5b610df484823560208401610d35565b949350505050565b80356001600160a01b0381168114610e1357600080fd5b919050565b60008060408385031215610e2b57600080fd5b610e3483610dfc565b9150602083013567ffffffffffffffff811115610e5057600080fd5b8301601f81018513610e6157600080fd5b610e7085823560208401610d35565b9150509250929050565b6101408101818360005b600a811015610ea657815160ff16835260209283019290910190600101610e84565b50505092915050565b60005b83811015610eca578181015183820152602001610eb2565b50506000910152565b6020815260008251806020840152610ef2816040850160208701610eaf565b601f01601f19169190910160400192915050565b600060208284031215610f1857600080fd5b610cd082610dfc565b6000610140808385031215610f3557600080fd5b838184011115610f4457600080fd5b509092915050565b634e487b7160e01b600052601260045260246000fd5b600082610f7157610f71610f4c565b500690565b634e487b7160e01b600052601160045260246000fd5b80820180821115610c5357610c53610f76565b634e487b7160e01b600052603260045260246000fd5b81810381811115610c5357610c53610f76565b600060ff821660ff8103610fde57610fde610f76565b60010192915050565b600181811c90821680610ffb57607f821691505b60208210810361101b57634e487b7160e01b600052602260045260246000fd5b50919050565b601f8211156109fd576000816000526020600020601f850160051c8101602086101561104a5750805b601f850160051c820191505b818110156103c757828155600101611056565b815167ffffffffffffffff81111561108357611083610d1f565b611097816110918454610fe7565b84611021565b602080601f8311600181146110cc57600084156110b45750858301515b600019600386901b1c1916600185901b1785556103c7565b600085815260208120601f198616915b828110156110fb578886015182559484019460019091019084016110dc565b50858210156111195787850151600019600388901b60f8161c191681555b5050505050600190811b01905550565b60008261113857611138610f4c565b500490565b8082028115828204841417610c5357610c53610f76565b60006020828403121561116657600080fd5b813560ff81168114610cd057600080fd5b60006020828403121561118957600080fd5b5051919050565b600082516111a2818460208701610eaf565b919091019291505056fe360894a13ba1a3210667c828492db98dca3e2076cc3735a920a3ca505d382bbc4974206973206120676f6f6420707261637469636520746f20726f74617465207365656473206f6674656e20696e2067616d626c696e67a26469706673582212205808cc8fc73c3adce93dc78f18c416ce5f6cac038a1b8f56735c0a2f0a9cfa0964736f6c63430008180033","linkReferences":{}},"methodIdentifiers":{"UPGRADE_INTERFACE_VERSION()":"ad3cb1cc","getFlips()":"5ff7a0bd","initialize(address)":"c4d66de8","owner()":"8da5cb5b","proxiableUUID()":"52d1902d","renounceOwnership()":"715018a6","seed()":"7d94792a","seedRotation(string)":"27236822","transferOwnership(address)":"f2fde38b","upgradeToAndCall(address,bytes)":"4f1ef286","userInput(uint8[10])":"ddabf9b2"},"id":32}